{
  "contractName": "RevokeAndPublish",
  "abi": [
    {
      "constant": true,
      "inputs": [
        {
          "name": "",
          "type": "address"
        }
      ],
      "name": "manager",
      "outputs": [
        {
          "name": "",
          "type": "address"
        }
      ],
      "payable": false,
      "stateMutability": "view",
      "type": "function"
    },
    {
      "anonymous": false,
      "inputs": [
        {
          "indexed": true,
          "name": "genesis",
          "type": "address"
        },
        {
          "indexed": true,
          "name": "from",
          "type": "address"
        },
        {
          "indexed": true,
          "name": "to",
          "type": "address"
        },
        {
          "indexed": false,
          "name": "updatedAt",
          "type": "uint256"
        }
      ],
      "name": "Revocation",
      "type": "event"
    },
    {
      "constant": false,
      "inputs": [
        {
          "name": "genesis",
          "type": "address"
        },
        {
          "name": "key",
          "type": "bytes32"
        },
        {
          "name": "data",
          "type": "bytes32"
        },
        {
          "name": "newManager",
          "type": "address"
        }
      ],
      "name": "revokeAndPublish",
      "outputs": [],
      "payable": false,
      "stateMutability": "nonpayable",
      "type": "function"
    },
    {
      "constant": false,
      "inputs": [
        {
          "name": "genesis",
          "type": "address"
        },
        {
          "name": "key",
          "type": "bytes32"
        },
        {
          "name": "data",
          "type": "bytes32"
        }
      ],
      "name": "publish",
      "outputs": [],
      "payable": false,
      "stateMutability": "nonpayable",
      "type": "function"
    },
    {
      "constant": true,
      "inputs": [
        {
          "name": "genesis",
          "type": "address"
        },
        {
          "name": "key",
          "type": "bytes32"
        }
      ],
      "name": "lookup",
      "outputs": [
        {
          "name": "",
          "type": "bytes32"
        }
      ],
      "payable": false,
      "stateMutability": "view",
      "type": "function"
    }
  ],
  "bytecode": "0x606060405273aca1bcd8d0f5a9bfc95aff331da4c250cd9ac2da600160006101000a81548173ffffffffffffffffffffffffffffffffffffffff021916908373ffffffffffffffffffffffffffffffffffffffff160217905550341561006457600080fd5b61073f806100736000396000f300606060405260043610610062576000357c0100000000000000000000000000000000000000000000000000000000900463ffffffff1680635dd4a65f146100675780637769d384146100c95780638ac2571f1461013b578063d4d2e7f21461018e575b600080fd5b341561007257600080fd5b6100ab600480803573ffffffffffffffffffffffffffffffffffffffff1690602001909190803560001916906020019091905050610207565b60405180826000191660001916815260200191505060405180910390f35b34156100d457600080fd5b610139600480803573ffffffffffffffffffffffffffffffffffffffff16906020019091908035600019169060200190919080356000191690602001909190803573ffffffffffffffffffffffffffffffffffffffff16906020019091905050610335565b005b341561014657600080fd5b61018c600480803573ffffffffffffffffffffffffffffffffffffffff16906020019091908035600019169060200190919080356000191690602001909190505061049d565b005b341561019957600080fd5b6101c5600480803573ffffffffffffffffffffffffffffffffffffffff169060200190919050506106e0565b604051808273ffffffffffffffffffffffffffffffffffffffff1673ffffffffffffffffffffffffffffffffffffffff16815260200191505060405180910390f35b6000600160009054906101000a900473ffffffffffffffffffffffffffffffffffffffff1673ffffffffffffffffffffffffffffffffffffffff1663e1661eff3085856000604051602001526040518463ffffffff167c0100000000000000000000000000000000000000000000000000000000028152600401808473ffffffffffffffffffffffffffffffffffffffff1673ffffffffffffffffffffffffffffffffffffffff1681526020018373ffffffffffffffffffffffffffffffffffffffff1673ffffffffffffffffffffffffffffffffffffffff16815260200182600019166000191681526020019350505050602060405180830381600087803b151561031257600080fd5b6102c65a03f1151561032357600080fd5b50505060405180519050905092915050565b61034084848461049d565b8073ffffffffffffffffffffffffffffffffffffffff166000808673ffffffffffffffffffffffffffffffffffffffff1673ffffffffffffffffffffffffffffffffffffffff16815260200190815260200160002060009054906101000a900473ffffffffffffffffffffffffffffffffffffffff1673ffffffffffffffffffffffffffffffffffffffff168573ffffffffffffffffffffffffffffffffffffffff167fb108cbcd5a729be24c4a54f8b093f1c6a72c9dcdcbd257cb10e8ead9e69e32f1426040518082815260200191505060405180910390a4806000808673ffffffffffffffffffffffffffffffffffffffff1673ffffffffffffffffffffffffffffffffffffffff16815260200190815260200160002060006101000a81548173ffffffffffffffffffffffffffffffffffffffff021916908373ffffffffffffffffffffffffffffffffffffffff16021790555050505050565b60008060008573ffffffffffffffffffffffffffffffffffffffff1673ffffffffffffffffffffffffffffffffffffffff16815260200190815260200160002060009054906101000a900473ffffffffffffffffffffffffffffffffffffffff1673ffffffffffffffffffffffffffffffffffffffff1614801561054c57503373ffffffffffffffffffffffffffffffffffffffff168373ffffffffffffffffffffffffffffffffffffffff16145b806105e057503373ffffffffffffffffffffffffffffffffffffffff166000808573ffffffffffffffffffffffffffffffffffffffff1673ffffffffffffffffffffffffffffffffffffffff16815260200190815260200160002060009054906101000a900473ffffffffffffffffffffffffffffffffffffffff1673ffffffffffffffffffffffffffffffffffffffff16145b15156105eb57600080fd5b600160009054906101000a900473ffffffffffffffffffffffffffffffffffffffff1673ffffffffffffffffffffffffffffffffffffffff16639918925d8484846040518463ffffffff167c0100000000000000000000000000000000000000000000000000000000028152600401808473ffffffffffffffffffffffffffffffffffffffff1673ffffffffffffffffffffffffffffffffffffffff168152602001836000191660001916815260200182600019166000191681526020019350505050600060405180830381600087803b15156106c757600080fd5b6102c65a03f115156106d857600080fd5b505050505050565b60006020528060005260406000206000915054906101000a900473ffffffffffffffffffffffffffffffffffffffff16815600a165627a7a72305820080031745c3bac9a636032831a5ab09b74d421874ae71513dc90015d0623f5510029",
  "source": "pragma solidity 0.4.19;\nimport '../EthereumClaimsRegistry.sol';\n\n\n/// @title Revoke and Publish - an interface for publishing data and \n///        rotating access to publish new data\ncontract RevokeAndPublish {\n\n    event Revocation(\n        address indexed genesis,\n        address indexed from,\n        address indexed to,\n        uint updatedAt);\n\n    mapping(address => address) public manager;\n    EthereumClaimsRegistry registry = EthereumClaimsRegistry(0xAcA1BCd8D0f5A9BFC95aFF331Da4c250CD9ac2Da);\n\n    function revokeAndPublish(address genesis, bytes32 key, bytes32 data, address newManager) public {\n        publish(genesis, key, data);\n        Revocation(genesis, manager[genesis], newManager, now);\n        manager[genesis] = newManager;\n    }\n\n    /// @dev Publish some data\n    /// @param genesis The address of the first publisher\n    /// @param key The key used to identify the claim\n    /// @param data The data associated with the claim\n    function publish(address genesis, bytes32 key, bytes32 data) public {\n        require((manager[genesis] == 0x0 && genesis == msg.sender) || manager[genesis] == msg.sender);\n        registry.setClaim(genesis, key, data);\n    }\n\n    /// @dev Lookup the currently published data for genesis\n    /// @param genesis The address of the first publisher\n    /// @param key The key used to identify the claim\n    function lookup(address genesis, bytes32 key) public constant returns(bytes32) {\n      return registry.getClaim(address(this), genesis, key);\n    }\n}\n",
  "sourcePath": "/home/oed/uport/claims-registry/contracts/applications/RevokeAndPublish.sol",
  "compiler": {
    "name": "solc",
    "version": "0.4.19+commit.c4cbbb05.Emscripten.clang"
  },
  "schemaVersion": "2.0.0",
  "updatedAt": "2018-03-27T18:36:05.254Z"
}